:020000040800F2
:10000000E0040020D9010008EB1A000815170008C9
:10001000E91A00089D080008C91E00080000000039
:10002000000000000000000000000000EF1A0008BF
:100030009F08000800000000ED1A0008AD1B000832
:10004000F3010008F3010008F3010008F3010008C0
:10005000F3010008F3010008F3010008F3010008B0
:10006000F3010008F3010008F3010008F3010008A0
:10007000F3010008F3010008F3010008F301000890
:10008000F3010008F3010008F3010008F301000880
:10009000F3010008F3010008F3010008F301000870
:1000A000F3010008F3010008F3010008F301000860
:1000B000F3010008F3010008F3010008F301000850
:1000C000F3010008F3010008F3010008F301000840
:1000D000F3010008F3010008F3010008F301000830
:1000E000F3010008F3010008F3010008F301000820
:1000F000F3010008F3010008F3010008F301000810
:10010000F3010008F3010008F3010008F3010008FF
:10011000F3010008F3010008F3010008F3010008EF
:10012000F3010008F3010008F3010008F3010008DF
:10013000F30100080000000000000000F3010008C7
:10014000F3010008F3010008F3010008F3010008BF
:10015000F3010008F3010008F3010008F3010008AF
:10016000F3010008F3010008F3010008F30100089F
:10017000F3010008F3010008F3010008000000008B
:1001800000000000F3010008000000000000000073
:10019000F30100080000000000000000F301000867
:1001A000000000000000000000000000F301000853
:1001B000F3010008F3010008F3010008F30100084F
:1001C000F3010008DFF80CD000F07AF8004800478F
:1001D0002D200008E004002006488047064800471C
:1001E000FEE7FEE7FEE7FEE7FEE7FEE7FEE7FEE7E7
:1001F000FEE7FEE7451C0008C50100082DE9F05F99
:100200000546002092469B46884606468146402485
:100210001BE0284641464746224600F041F8534637
:100220005A46C01A914110D311461846224600F092
:1002300028F82D1A67EB01084F46224601200021BD
:1002400000F01FF817EB00094E41201EA4F1010435
:10025000DFDC484631462A464346BDE8F09FD2B22D
:1002600001E000F8012B491EFBD270470022F6E79F
:1002700010B513460A4604461946FFF7F0FF20461C
:1002800010BD202A04DB203A00FA02F1002070475A
:100290009140C2F1200320FA03F3194390407047C4
:1002A000202A04DB203A21FA02F00021704721FACB
:1002B00002F3D040C2F12002914008431946704732
:1002C000064C074D06E0E06840F0010394E80700A3
:1002D00098471034AC42F6D3FFF778FF9C20000813
:1002E000BC2000082DE9FE4FDFF8F0830346FC4CEC
:1002F00098F80000642580F001020126DFF8E493FD
:1003000098F801100027DFF8E0A3D8F804004FF0B8
:10031000FF0B1B2B78D066DCF04A0F2B926974D050
:10032000172B5ED1012971D0022970D0032958D131
:10033000521CC8F81820092A01DDC8F81870277067
:10034000CDE90046012303224221E848029500F04E
:100350009FFC98F801004746204401230079207053
:10036000CDE9004602224221E048029500F090FCCF
:10037000E0782070CDE90046012303224221DB48CA
:10038000029500F085FC84F800B0CDE90046012319
:1003900002224221D548029500F07AFCA078207014
:1003A000CDE90046012303224221D048029500F006
:1003B0006FFCB86901232044022200792070CDE946
:1003C00000464221C948029500F062FC6078207026
:1003D000CDE90046012303224221C448029500F0E2
:1003E00057FCBDE8FE8F1D2B2DD01E2BF9D1491CCB
:1003F000C8B288F8010003280AD940F23F1001F082
:10040000A3FD88F80170ECE7A8E08DE148E150E138
:1004100001F06EFB98F801000328E2D1C0202071A2
:10042000F9206071A420A071B020E07199202072A1
:10043000922060728220A072D820E0728020207307
:1004400090206073CDE7022904D00329C9D188F830
:1004500000207DE0C8F81470C8F80C7039460022FE
:10046000A348C8F8107001F030FDB8F81000082259
:1004700081B29F4801F029FD544612E0B8F8080007
:10048000042281B29A4801F020FDD8F80800083013
:10049000C8F80800FF2801DDC8F80870642000F0E3
:1004A00035FA0821204600F017FB0028E6D098E72F
:1004B000C169491CC8F81C10092901DDC8F81C7065
:1004C0002770CDE900460123032242218748029587
:1004D00000F0DEFB84F800B0CDE9004601230222E3
:1004E00042218248029500F0D3FB60782070CDE96C
:1004F00000460123032242217C48029500F0C8FBFC
:10050000D8F81C0001232044022200792070CDE994
:10051000004642217548029500F0BAFBA078207091
:10052000CDE900460123032242217048029500F0E4
:10053000AFFB4FF4FA7000F0E9F90821504600F0E3
:10054000CBFA28B998F8001081F0010188F8001062
:1005500098F8001040460029AAD142E7012906D0A8
:10056000022918D00329A2D188F8002092E0401C6B
:10057000C8F80400042801DDC8F8047000224FF414
:10058000F861484600F0B4FA98F80410402088401A
:1005900081B20122FCE0C8F81470C8F80C7039462A
:1005A00004225348C8F8087001F08FFCB8F80C001A
:1005B000002281B24E4801F088FC544613E000BF8F
:1005C000B8F81000082281B2494801F07EFCD8F842
:1005D00010000830C8F81000FF2801DDC8F81070BE
:1005E000642000F093F91021204600F075FA0028ED
:1005F000E6D0F6E6C169491EC8F81C1002D50920EC
:10060000C8F81C002770CDE90046012303224221CF
:100610003648029500F03CFB84F800B0CDE9004676
:100620000123022242213148029500F031FB60781B
:100630002070CDE900460123032242212B48029578
:1006400000F026FBD8F81C00012320440222007988
:100650002070CDE9004642212448029500F018FBA5
:10066000A0782070CDE900460123032242211F48D3
:10067000029500F00DFB4FF4FA7000F047F91021DD
:10068000504600F029FA28B998F8001081F00101CD
:1006900088F8001098F8001040460029AAD1A0E67A
:1006A000401EC8F804007FF569AF0420C8F80400B4
:1006B00064E7C8F81470C8F80870394604220C487A
:1006C000C8F8107001F001FCB8F81000082281B2DF
:1006D000074801F0FAFB54461FE00000000000202C
:1006E0003C00002000140240001002404C0000209A
:1006F000A0000020B8F80C00002281B2404801F0B0
:10070000E4FBD8F80C000830C8F80C00FF2801DD25
:10071000C8F80C70642000F0F9F82021204600F0A1
:10072000DBF90028E6D05CE601290CD0022935D09F
:100730000329B4D1521EC8F818207FF500AE092055
:10074000C8F81800FBE54FF4A86501222946484681
:1007500000F0CEF94FF4207700223946484600F0E9
:10076000C7F94FF4FA76304600F0D0F80024294655
:10077000484600F0B6F93946484600F0B2F930462E
:1007800000F0C4F8641C092CF1DB00224FF4F8617E
:1007900003B04846BDE8F04F00F0AAB9C8F814709D
:1007A000C8F81070C8F80C705446C8F8087020E0FB
:1007B000B8F81400082281B2114801F086FBB8F89D
:1007C0001400042281B20E4801F07FFBB8F8140037
:1007D000002281B20A4801F078FBD8F814000830F2
:1007E000C8F81400FF2801DDC8F81470642000F078
:1007F0008DF84021204600F06FF90028D8D0F0E5B0
:10080000A00000208179012902D0002101607047F9
:100810000168491CFAE70146002019290FD2DFE8D8
:1008200001F00D0F1113152517191B1D1F2123256D
:1008300027292B2D2F31333537393B00C020704706
:10084000F9207047A4207047B02070479920704766
:1008500082207047D82070478020704790207047D2
:1008600086207047AB207047A120704792207047C8
:10087000AF207047FF2070478720704703207047E4
:100880008C207047232070472F207047C620704768
:10089000882070474720704711207047FEE7704757
:1008A00070B5194E04460421304600F015F905468E
:1008B0000821304600F010F945EA40051021304685
:1008C00000F00AF945EA80052021304600F004F9DD
:1008D00045EAC0054021304600F0FEF845EA001028
:1008E000C0B20021E0711F280AD0A279002A09D1E4
:1008F0000122A27121602072BDE87040FFF7F2BCB6
:100900002160A17170BD00000010024070B5044666
:1009100000F0F4F80546601C02D004480078044456
:1009200000F0ECF8401BA042FAD370BD200000207C
:100930002DE9F84F00224FF0010803254FF00F0E6C
:100940000B6808FA02F42340A3426ED14E68012ED0
:1009500005D0022E03D0112E01D0122E12D186689E
:100960004FEA420C05FA0CF7BE43CF6807FA0CF7C2
:10097000374387604668A6430C79C4F3001494405B
:1009800034434460C668570005FA07FC8C6826EAC1
:100990000C06BC403443C4604C68022C01D0122CBD
:1009A00013D1D40800EB8404A346D4F82090540754
:1009B0004FEAD46A0EFA0AF629EA06090E6906FA1F
:1009C0000AF646EA0906CBF8206006680C7926EAA2
:1009D0000C0604F00304BC40344304604C68E4009B
:1009E00060D5334C266846F480462660246822F0A1
:1009F000030604F4804400942E4C3444A446D4F8F6
:100A000008489607370F0EFA07F6B4432A4EB0424D
:100A100001D100261FE0294EB04201D101261AE083
:100A2000274EB04202D1022615E03BE0254EB042EF
:100A300001D103260FE0244EB04201D104260AE082
:100A4000224EB04201D1052605E0214EB04201D12F
:100A5000062600E00726BE402643CCF808681D4E57
:100A600034684F689C43FF0300D51C433460194E23
:100A7000361D34684F689C43BF0300D51C43346067
:100A8000144E083634684F689C43FF0200D51C435F
:100A90003460104E0C3634684F689C43BF0200D55A
:100AA0001C433460521C102AFFF44AAFBDE8F88F93
:100AB000443802400030014000000240000402407F
:100AC00000080240000C02400010024000140240E6
:100AD00000180240003C01400069084000D001209D
:100AE0007047426931EA020200D10904816170470E
:100AF0000AB1816170470904FBE700000148806882
:100B0000704700002000002070B5040025D094F844
:100B10003D00002520B984F83C50204600F050F9F3
:100B2000242084F83D002068016821F00101016063
:100B30002068016841F4004101602068016821F4E7
:100B40000041016000F098FA4D4A6168914201D875
:100B50004C4900E04C49884201D2012070BD4B490C
:100B60002368B0FBF1F15E6826F03F060E435E603D
:100B70006368934206D94FF4967359434FF47A73DE
:100B8000B1FBF3F12368491C1E6A26F03F0631438E
:100B900019626168914210D84900401EB0FBF1F221
:100BA000521CC2F30B02042A01D2042022E0B0FB43
:100BB000F1F0401CC0F30B001CE0A268F2B301EBA3
:100BC000C10303EB0116431EB3FBF6F35B1C43F4B6
:100BD00080431B0549D092B301EBC10202EB011126
:100BE000401EB0FBF1F0401CC0F30B0040F480400D
:100BF00040F400402168CA694CF6FF739A431043E1
:100C0000C861D4E9071001432068026822F0C002DD
:100C100011430160D4E9030101432068826848F26E
:100C2000FF339A4311438160D4E9050108432168E9
:100C3000CA6822F0FF021043C86001E00EE016E02F
:100C40002068016841F0010101602564202084F8DA
:100C50003D00256384F83E50002070BD01EB410645
:100C6000431EB3FBF6F35B1CB3E70120C2E701EBC5
:100C70004101401EB0FBF1F0401CC0F30B00B7E790
:100C8000A086010080841E0000093D0040420F0044
:100C90002DE9FF4F83B09A46DDE91197934604464C
:100CA000DDF84080FFF72AFF054694F83D00202834
:100CB0007FD11923012240492046009500F0E2FD32
:100CC000002876D194F83C00012872D0012084F8E5
:100CD0003C0020680168C90703D1016841F00101A7
:100CE00001602068016821F400610160212084F81E
:100CF0003D00402084F83E0000262664C4F824808D
:100D0000A4F82A90608D20852C48E062CDE900751A
:100D100053465A462046049900F03AFD70B930E037
:100D20002A463946204600F02CFE58B1206C042893
:100D300004D12068016841F400710160012007B00E
:100D4000BDE8F08F606A216800780861606A401C25
:100D50006062218D491E89B22185628D521E628595
:100D600022685369DB435B070BD469B100781061DB
:100D7000606A401C6062208D401E2085608D401E90
:100D80006085208D0028CBD12A463946204600F0C8
:100D900053FD0028CAD154F83D0B016841F400719D
:100DA0000160202004F81E09E67766770020C6E778
:100DB000FFE70220C3E70000020010000000FFFF71
:100DC00010B586B0044614216846FFF74FFA14495F
:100DD0002068884221D11348016841F00201016076
:100DE0000068694600F0020005904FF440700090E2
:100DF000122001900120029003200390042004900F
:100E00000948FFF795FD07481030016841F40011CB
:100E10000160006800F40010059006B010BD0000ED
:100E2000005400403038024000040240024881680B
:100E30000278114481607047200000200B4810B5F3
:100E4000016841F400710160016841F48061016052
:100E5000016841F480710160032000F061F8002016
:100E600000F006F800F024F8002010BD003C02401D
:100E700070B50D4D04464FF47A712878B1FBF0F04F
:100E80000A490968B1FBF0F000F0F2FA48B9102CF9
:100E900007D200222146501E00F022F800206C608C
:100EA00070BD012070BD0000200000202C0000203B
:100EB0000A4808B5016841F480410160006800F407
:100EC000804000900548001F016841F0805101609A
:100ED000006800F08050009008BD000044380240D7
:100EE000F0B40E4B1B680C46C3F30223C3F1070595
:100EF000042D00D90425191D072901D2002300E083
:100F0000DB1E012606FA05F1491E214099409E404C
:100F1000761E16403143F0BC01F068B80CED00E0DD
:100F2000064900F0070208684FF6FF03184040EA40
:100F30000220034A10430860704700000CED00E0F7
:100F40000000FA052DE9F0470E46050065D0DFF8F0
:100F50001481D8F80000F7B200F00F00B04207D2B9
:100F600088F80070D8F8000000F00F00B04254D1AB
:100F700028683D4C810712D5400703D5206840F40E
:100F8000E05020602878000703D5206840F46040D6
:100F900020602068A96820F0F000084320602878CD
:100FA000C0072DD0304968680839012812D00228BE
:100FB00013D0032811D00968890700292DDA216888
:100FC00021F0030101432160FFF798FD814641F2C2
:100FD000883A0EE009688903EFE709688901ECE7C0
:100FE000FFF78CFDA0EB0901514502D90320BDE8B4
:100FF000F0872068696800F00C00B0EB810FEFD13A
:10100000D8F80010404601F00F01B14207D907702F
:10101000006800F00F00B04201D00120E7E7287817
:10102000400705D52068E96820F4E05008432060B7
:101030002878000706D52068296920F4604040EA36
:10104000C100206000F028F82168084AC1F30311AC
:10105000515CC8400649086006480068FFF708FF71
:101060000020C4E7003C0240083802408420000809
:101070002C0000202400002004480549006809686D
:10108000044AC1F38221515CC84070472C00002003
:101090000838024094200008224810B5006810F07B
:1010A0000C02214815D04110042A11D01D4C241FD8
:1010B000082A0FD00C2A0CD12268236802F03F02C4
:1010C0005B0221D52068C0F38810A0FB010120E05D
:1010D000084610BD2268236802F03F025B0205D576
:1010E0002068C0F38810A0FB010104E02168C1F36F
:1010F0008811A1FB00010023FFF780F82168C1F3EC
:101100000141491C49000AE02168C1F38811A1FB93
:1011100000010023FFF772F82168C1F30271B0FBF0
:10112000F1F010BD083802400024F4002DE9F84F1A
:101130000546DFF828B30078ABF10407C007A7F134
:10114000040451D0DBF800105846C1F38101012995
:101150000FD00168C1F38101022902D13968490227
:1011600007D40068C0F38100032809D13868400221
:1011700006D52068800337D56868002872D033E030
:101180006868B0F5803F10D0B0F5A02F206810D06F
:1011900020F480302060206820F48020206068687F
:1011A000A8B1FFF7ABFC06460DE0206840F48030A4
:1011B000F4E740F480202060F7E700BFFFF79EFCD3
:1011C000801B642878D820688003F7D50CE0FFF7EF
:1011D00095FC064605E000BFFFF790FC801B6428E5
:1011E000F0D820688003F7D42878DFF8749280075D
:1011F0004FF0000A46D5DBF80010584611F00C0FEE
:101200000FD00168C1F38101022902D13968490276
:1012100007D50068C0F38100032809D1386840026F
:1012200006D42068800715D5E86801281AD111E096
:10123000E868C0B10120C9F80000FFF75FFC06466E
:1012400005E000BFFFF75AFC801B0228BAD82068CF
:101250008007F7D52068296920F0F80040EAC1002E
:1012600020600FE0F7E0C9F800A0FFF747FC064652
:1012700005E000BFFFF742FC801B02281CD8206855
:101280008007F7D42878000727D5DFF8D081754884
:10129000696908F16C0881B101210160FFF72EFC3A
:1012A000064604E0FFF72AFC801B022804D8D8F881
:1012B00000008007F6D510E089E0C0F800A0FFF735
:1012C0001DFC064605E000BFFFF718FC801B022846
:1012D0007DD8D8F800008007F6D42878400769D573
:1012E0005E484FF0000838300068C0000BD45B48FF
:1012F0003830016841F08051016000684FF001080A
:1013000000F080500090584E3068C00511D430680D
:1013100040F480703060FFF7F1FB009006E000BF02
:10132000FFF7ECFB0099401A022850D83068C0053E
:10133000F6D54A4EA868683601280FD005283068CF
:1013400010D020F001003060306820F004003060E0
:10135000A868B8B1FFF7D2FB00900FE0306840F00A
:101360000100F4E740F004003060F7E7FFF7C6FB48
:101370000099411A41F28830814264D83068800770
:10138000F4D50EE0FFF7BAFB009007E0FFF7B6FBDD
:101390000099411A41F28830814254D83068800760
:1013A000F4D4B8F1000F05D02C483830016821F092
:1013B00080510160A869A8B3DBF80010C1F3810176
:1013C000022948D00228C9F860A005D000E03AE020
:1013D000FFF794FB054639E0FFF790FB064604E073
:1013E000FFF78CFB801B02282DD820688001F7D4E2
:1013F000F5E907010843E9681C4A490802EB014185
:10140000AA6841EA82110843297C40EA0160297DEB
:1014100040EA017038600120C9F86000FFF76EFBF8
:10142000054606E015E000BFFFF768FB401B0228F9
:1014300009D820688001F7D50BE000BFFFF75EFBFD
:10144000401B022802D90320BDE8F88F20688001E4
:10145000F4D40020F8E70120F6E700000838024045
:1014600000004742800E4742007000400000FFFF2E
:1014700010B5401EB0F1807F01D3012010BD4FF0A8
:10148000E02460610F21601700F0B0FD0020A06132
:1014900007202061002010BD70B590F83C20012A83
:1014A00032D0012480F83C40022280F83D200368BD
:1014B0005A689D6822F070060A6832435A60134BDE
:1014C00002689A4214D0B2F1804F11D0104B9A4268
:1014D0000ED0104B9A420BD00F4B9A4208D00F4BB4
:1014E0009A4205D00E4B9A4202D00E4B9A4204D13A
:1014F000496825F080031943916080F83D40002140
:1015000080F83C10084670BD022070BD000001400C
:101510000004004000080040000C004000040140AE
:10152000004001400018004030B587B00446142147
:101530006846FEF79BFE16492068884226D115486A
:101540000024016841F002010160016801F002011C
:101550000591016841F0040101600068022500F076
:101560000400059011200090CDE9015469460A4815
:10157000CDE90345FFF7DCF980200090CDE9015467
:1015800069460648CDE90345FFF7D2F907B030BDFB
:1015900000040040303802400004024000080240CD
:1015A00070B5044690F83C000D4601280DD0012688
:1015B00084F83C60022084F83D0042B1042A18D02F
:1015C000082A2AD00C2A4DD139E0022070BD2068AB
:1015D00000F0B8FB2068816941F008018161206852
:1015E000816921F004018161206881692A691143C0
:1015F00011E0206800F0D6FB2068816941F40061A9
:1016000081612068816921F480618161206881693C
:101610002A6941EA0221816124E0206800F0F8FB98
:101620002068C16941F00801C1612068C16921F0E9
:101630000401C1612068C1692A69114311E0206871
:1016400000F01AFC2068C16941F40061C1612068A2
:10165000C16921F48061C1612068C1692A6941EAD8
:101660000221C16184F83D60002084F83C0070BD17
:1016700010B5040003D094F83D0010B107E001203C
:1016800010BD002084F83C00204600F00DF8022038
:1016900084F83D00211D206800F0E2FA012084F862
:1016A0003D00002010BD000008B5006806498842D2
:1016B00008D10648016841F002010160006800F0AD
:1016C0000200009008BD00000004004040380240C5
:1016D00010B504460068012200F026FB0B49206883
:1016E000884202D00A49884203D1416C41F400414A
:1016F00041642068816801F00701062903D0016870
:1017000041F001010160002010BD00000000014017
:1017100000040140FEE70000FEB50F4C002001254B
:10172000207064268DE870002B46062242210B486B
:10173000FFF7AEFA8DE87000012307224221074827
:10174000FFF7A6FA202060700820A0700220E07049
:101750002A20E073FEBD00003C0000204C00002069
:1017600001684A69D24352050FD46FF480624A611E
:10177000002140F8301F202242738173026942F039
:1017800004020261017301207047002070470000CD
:101790002DE9F843044600680D46DDE90897016825
:1017A0009846164641F4807101604B4600224FF086
:1017B00001112046009700F065F848B120680068E4
:1017C000C00502D54FF4007020640320BDE8F88303
:1017D000216805F0FE0008613B464A46154920464F
:1017E00000F084F888B920684169806900903A4621
:1017F0004946204600F0C5F848B1206C042804D1C1
:101800002068016841F4007101600120DEE7F5B253
:10181000B8F1010F09D02168300A08613A464946FB
:10182000204600F0AEF80028E7D1206805610020CE
:10183000CCE700000200010070B516460D460446D4
:101840000DE02046FFF78CFF08B1012070BD681C39
:1018500005D0FFF753F9801BA84207D835B120689F
:101860004069C0434007ECD4002070BD002044F81C
:10187000300F20216173A073216941F020012161A3
:101880002073E2E72DE9F0471E4690460D460446D8
:10189000C1F30747DDF8209008E0701C06D0FFF781
:1018A0002DF9A0EB0900B0420FD876B12068012FC6
:1018B00018D0806925EA00000004000C14D0002133
:1018C0004145EAD00020BDE8F087002044F8300F01
:1018D00020216173A073216941F0200121612073EF
:1018E0000120F0E74069E5E70121E9E72DE9F0474C
:1018F0009A4691460E46044600254FF02008C1F353
:10190000074725E020684069C043400514D420689B
:10191000016841F40071016021686FF480604861E2
:10192000256384F83D8084F83E50206C40F004002C
:10193000206484F83C501FE0B9F1FF3F08D0FFF766
:10194000DDF8A0EB0A0149450CD8B9F1000F09D028
:101950002068012F13D0806926EA00000004000CE3
:101960000BD0CFE744F8305F84F80D80A573206971
:1019700040F02000206125730120BDE8F087406918
:10198000EAE770B516460D4604460DE02046FFF71F
:10199000E7FE08B1012070BD681C05D0FFF7AEF866
:1019A000801BA84207D835B120684069C0430006B3
:1019B000ECD4002070BD002044F8300F202161736A
:1019C000A073216941F0200121612073E2E700004A
:1019D00070B586B014216846FEF748FC2248002402
:1019E000016841F010010160016801F010010591EA
:1019F000016841F020010160016801F020010591BA
:101A0000016841F080010160016801F080010591E9
:101A1000016841F002010160016801F002010591D5
:101A2000016841F0040101600068104E00F00400FC
:101A30004FF4F8650590002229463046FFF758F824
:101A40007C20CDE90004694609480294FEF770FF46
:101A500001200095CDE90104694630460394FEF764
:101A600067FF06B070BD000030380240001402402D
:101A70000010024010B58AB0002407941C2168466B
:101A80000894FEF7F3FB1748154901605321C0E99C
:101A9000011440F2E731C0E903148461FFF7E8FD67
:101AA000079407A90F480894FFF7F6FC6020CDE9DA
:101AB00000040294002269460A480494FFF770FD6E
:101AC000042269460748FFF76BFD0822694605486E
:101AD000FFF766FD0348FFF727FD0AB010BD0000C1
:101AE00000040040A0000020FEE7704770477047E8
:101AF000FEB52C4C0746F9206071A420A071B020DF
:101B0000E071002020700126CDE9004664253346AF
:101B10000322422124480295FFF7BAF8E019012375
:101B200000792070CDE90046022242211E4802952C
:101B3000FFF7AEF8E0782070CDE9004601230322DC
:101B4000422119480295FFF7A3F8FF272770CDE936
:101B5000004601230222422113480295FFF798F81C
:101B6000A0782070CDE900460123032242210E48CF
:101B70000295FFF78DF82770CDE900460123022278
:101B8000422109480295FFF783F860782070CDE97B
:101B9000004601230322422103480295FFF778F80B
:101BA000FEBD00003C0000204C00002010B50348A2
:101BB000FEF728FEBDE81040FFF738B930000020DE
:101BC00030B593B034216846FEF750FB14210DA8C0
:101BD000FEF74CFB19480025016841F08051016077
:101BE000006800F0805012901548016841F44041AF
:101BF00001600068022400F440401290012000902F
:101C0000000401908001CDE9064004200890A8203E
:101C1000CDE909040B9468460C94FFF787FA0DA9E7
:101C20000F2081E831004FF4A0501090E002119095
:101C300005210DA8FFF786F913B030BD40380240EA
:101C4000007000400548016841F4700101600349DB
:101C50004FF00060803908607047000088ED00E0B8
:101C6000F0B50268254C264D264E274F274B4FF0E6
:101C7000804CA04209D0604507D0A84205D0B042B0
:101C800003D0B84201D0984204D122F0700E4A68C5
:101C900042EA0E02A0421BD0604519D0A84217D0DC
:101CA000B04215D0B84213D0984211D0184DA84276
:101CB0000ED0184DA8420BD0174DA84208D0174D92
:101CC000A84205D0164DA84202D0164DA84203D115
:101CD00022F44075CA682A434D6922F080022A43E3
:101CE00002608A68C2620A688262A04201D0984299
:101CF00001D10969016301214161F0BD000001408A
:101D00000004004000080040000C004000040140B6
:101D100000400140004401400048014000180040DC
:101D2000001C00400020004010B501F01F030121FD
:101D3000046A99408C430462016A9A40114301622B
:101D400010BD0000F0B5026A22F001020262036ACF
:101D500042688469124E24F073050C682C4323F00A
:101D600002058B682B430D4DA84201D0B04205D12E
:101D700023F00807CB683B4323F00403A84201D0BB
:101D8000B04205D14D6922F4407215438A692A4355
:101D900042608461496841630362F0BD0000014014
:101DA00000040140F0B5026A22F010020262026AE9
:101DB000436884690D6824F4E64444EA05248D6888
:101DC00022F0200242EA05120F4D104EA84201D027
:101DD000B04206D1CF6822F0800242EA071222F018
:101DE0004002A84201D0B04207D14D6923F44063BC
:101DF00043EA85038D6943EA85034360846149684A
:101E000081630262F0BD0000000001400004014057
:101E1000F0B5026A22F480720262026A4368C46901
:101E200022F4007224F073050C68124E2C438D6866
:101E300042EA05220E4DA84201D0B04206D1CF6839
:101E400022F4006242EA072222F48062A84201D012
:101E5000B04207D14D6923F4405343EA05138D691D
:101E600043EA05134360C4614968C1630262F0BD7F
:101E7000000001400004014030B5026A22F48052A3
:101E80000262046A4268C3690D6823F4E64343EAC8
:101E900005238D6824F4005444EA0534084DA84213
:101EA00002D0084DA84204D14D6922F4804242EA92
:101EB00085124260C36149680164046230BD00005C
:101EC0000000014000040140FEE730B587B0044641
:101ED0006020CDE900010021029103910491059158
:101EE0000691154669462046FFF75AFB29462046CB
:101EF000FFF7EEFB07B030BD42F21071B0FBF1F21C
:101F000001FB12004FF47A71B0FBF1F24FF6FF7350
:101F100003EA0232B0FBF1F301FB13016423B1FBCE
:101F2000F3F042EA0020B1FBF3F203FB12110A22A4
:101F3000B1FBF2F302FB1313B1FBF2F103EB01115E
:101F4000014388B2704700002DE9FF47002440F6A6
:101F5000FF710394884201D1084601E0FFF7CCFFEE
:101F6000C0F30B03180AFEF756FC8DF80E00C3F3FE
:101F70000310FEF750FC8DF80D0003F00F00FEF784
:101F80004AFCA0460025174C64268DF80C000DF184
:101F90000C09012784F80080CDE9004701230322C2
:101FA000422111480296FEF773FE19F805002070D1
:101FB000CDE900470123022242210B480296FEF799
:101FC00067FE6019012340782070CDE900470322A5
:101FD000422105480296FEF75BFE6D1C032DD9DBFE
:101FE000BDE8FF873C0000204C0000200907090ED7
:101FF000002804DB00F1E02080F80014704700F0B6
:102000000F0000F1E02080F8141D704702E008C8BE
:10201000121F08C1002AFAD170477047002001E062
:1020200001C1121F002AFBD170470000FEF706FF16
:10203000FFF7C6FDFFF7CCFC0F480E494FF4804276
:1020400001600E49416000218160C0E903124161D5
:102050008161C1610162FEF757FDFFF70BFDFFF7DC
:102060005BFB40F23F10FFF76FFF0548FEF718FCDF
:10207000FBE70000005400404C000020A086010057
:1020800030000020000000000000000001020304F6
:10209000060708090000000001020304BC20000834
:1020A00000000020300000000C200008EC20000898
:1020B00030000020B00400001C20000800000000D8
:1020C000FFFFFFFF00000000000000000000000014
:1020D00000000000FFFFFFFFFFFFFFFF0100000007
:0C20E00010000000000000000024F400CC
:04000005080001C529
:00000001FF
